:1000000071C0000086C0000084C0000082C00000F3
:1000100080C000007EC000007CC000007AC00000EC
:1000200078C0000076C0000074C0000072C00000FC
:1000300070C000006EC000006CC000006AC000000C
:1000400068C0000066C0000064C0000062C000001C
:1000500060C000005EC000005CC000005AC000002C
:1000600058C0000056C0000054C0000052C000003C
:1000700050C000004EC000004CC000004AC000004C
:1000800048C0000046C0000044C0000042C000005C
:1000900040C000003EC000003CC000003AC000006C
:1000A00038C0000036C0000034C0000032C000007C
:1000B00030C000002EC000002CC000002AC000008C
:1000C00028C0000026C0000024C0000022C000009C
:1000D00020C000001EC000001CC000001AC00000AC
:1000E00018C0000011241FBECFEFD1E2DEBFCDBF8C
:1000F00000E00CBF13E0A0E0B2E0E2EDF3E000E0CE
:100100000BBF02C007900D92A832B107D9F743D0B8
:100110005EC176CFCF93DF931F92CDB7DEB7198242
:1001200089818F5F898389818F5F89830F90DF91B8
:10013000CF9108950F931F93CF93DF93082F10E073
:10014000101611063CF4C0E0D0E0E4DF2196C017A1
:10015000D107DCF3DF91CF911F910F9108950F9399
:100160001F93CF93DF93082F10E01016110674F43D
:10017000C0E0D0E08AEFDEDF8AEFDCDF8AEFDADF93
:100180008AEFD8DF2196C017D107A4F3DF91CF9172
:100190001F910F9108959AD053D085D0A6D088236F
:1001A000E9F3843411F47FD003C0682F81E026D0B6
:1001B0009CD08111FDCFF2CF0F931F93CF93DF938C
:1001C000082F2E9818E0C2E0D1E0002324F48881A3
:1001D0008064888303C088818F7B88838881806264
:1001E000888398DF88818F7D8883000F115069F79D
:1001F0002E9ADF91CF911F910F9108951F93CF9366
:10020000DF93811104C02C98862FD6DF15C02C9A5D
:100210006052862F90E0EC01CC0FDD1FCC0FDD1F6C
:10022000C80FD91FC050DE4F10E08991C5DF1F5F96
:100230001530D9F780E0C0DFDF91CF911F9108958D
:10024000E1E0F1E08081806280838081806480834E
:10025000249A259A269A84E182DF2D9A8AE07FDF0C
:100260002E9A61E280E0CADF63E180E0C7DF65ECDF
:1002700080E0C4DF64E080E0C1DF60E280E0BEDFF8
:100280006CE080E0BBCF0895CF93C62F682F6064E9
:1002900080E0B4DF6C2F660F6C0F660F606880E043
:1002A000ADDFCF910895CF93DF9360E080E0ECDF86
:1002B000C4E5D0E060E281E0A1DF21972097D1F78B
:1002C00060E080E0E1DFDF91CF9108959D9A6B9A25
:1002D000E1E0F1E0808188608083808180618083BB
:1002E000859884986C986D980895A59A7398E2E023
:1002F000F1E08081877F808380818F7E808385E0AD
:100300002EDF7D9944C07C9944C0649944C06599AE
:1003100044C0A598739AE2E0F1E08081877F8083F2
:1003200080818F7E808385E01ADF7D9938C07C993B
:1003300038C0649938C0659938C0A5987398E2E0D0
:10034000F1E080818860808380818F7E808385E07A
:1003500006DF7D992CC07C992CC064992CC06599CE
:100360002CC0A5987398E2E0F1E08081877F8083BC
:1003700080818061808385E0F2DE7D9920C07C9958
:1003800020C0649920C0659B20C084E4089581E367
:10039000089584E3089587E308958AE2089582E347
:1003A000089585E3089588E3089580E3089583E33D
:1003B000089586E3089589E3089583E2089581E42A
:1003C000089582E4089583E4089580E00895F89400
:0203D000FFCF5D
:1003D200000000000000005F00000007000700149A
:1003E2007F147F14242A7F2A122313086462364959
:1003F2005522500005030000001C2241000041224A
:100402001C0014083E081408083E0808005030007A
:1004120000080808080800606000002010080402B4
:100422003E5149453E00427F4000426151494621CA
:1004320041454B311814127F1027454545393C4A36
:100442004949300171090503364949493606494986
:10045200291E0036360000005636000008142241DC
:100462000014141414140041221408020151090644
:10047200324979413E7E1111117E7F494949363E0A
:10048200414141227F4141221C7F494949417F0923
:100492000909013E4149497A7F0808087F00417FE6
:1004A20041002040413F017F081422417F404040EB
:1004B200407F020C027F7F0408107F3E4141413E93
:1004C2007F090909063E4151215E7F0919294646E5
:1004D2004949493101017F01013F4040403F1F200E
:1004E20040201F3F4038403F6314081463070870E0
:0804F200080761514945430070
:00000001FF
